{
  "_format": "hh-sol-artifact-1",
  "contractName": "MyNFT",
  "sourceName": "contracts/MyNFT.sol",
  "abi": [
    {
      "inputs": [],
      "stateMutability": "nonpayable",
      "type": "constructor"
    },
    {
      "inputs": [
        {
          "internalType": "address",
          "name": "sender",
          "type": "address"
        },
        {
          "internalType": "uint256",
          "name": "tokenId",
          "type": "uint256"
        },
        {
          "internalType": "address",
          "name": "owner",
          "type": "address"
        }
      ],
      "name": "ERC721IncorrectOwner",
      "type": "error"
    },
    {
      "inputs": [
        {
          "internalType": "address",
          "name": "operator",
          "type": "address"
        },
        {
          "internalType": "uint256",
          "name": "tokenId",
          "type": "uint256"
        }
      ],
      "name": "ERC721InsufficientApproval",
      "type": "error"
    },
    {
      "inputs": [
        {
          "internalType": "address",
          "name": "approver",
          "type": "address"
        }
      ],
      "name": "ERC721InvalidApprover",
      "type": "error"
    },
    {
      "inputs": [
        {
          "internalType": "address",
          "name": "operator",
          "type": "address"
        }
      ],
      "name": "ERC721InvalidOperator",
      "type": "error"
    },
    {
      "inputs": [
        {
          "internalType": "address",
          "name": "owner",
          "type": "address"
        }
      ],
      "name": "ERC721InvalidOwner",
      "type": "error"
    },
    {
      "inputs": [
        {
          "internalType": "address",
          "name": "receiver",
          "type": "address"
        }
      ],
      "name": "ERC721InvalidReceiver",
      "type": "error"
    },
    {
      "inputs": [
        {
          "internalType": "address",
          "name": "sender",
          "type": "address"
        }
      ],
      "name": "ERC721InvalidSender",
      "type": "error"
    },
    {
      "inputs": [
        {
          "internalType": "uint256",
          "name": "tokenId",
          "type": "uint256"
        }
      ],
      "name": "ERC721NonexistentToken",
      "type": "error"
    },
    {
      "inputs": [
        {
          "internalType": "address",
          "name": "owner",
          "type": "address"
        }
      ],
      "name": "OwnableInvalidOwner",
      "type": "error"
    },
    {
      "inputs": [
        {
          "internalType": "address",
          "name": "account",
          "type": "address"
        }
      ],
      "name": "OwnableUnauthorizedAccount",
      "type": "error"
    },
    {
      "anonymous": false,
      "inputs": [
        {
          "indexed": true,
          "internalType": "address",
          "name": "owner",
          "type": "address"
        },
        {
          "indexed": true,
          "internalType": "address",
          "name": "approved",
          "type": "address"
        },
        {
          "indexed": true,
          "internalType": "uint256",
          "name": "tokenId",
          "type": "uint256"
        }
      ],
      "name": "Approval",
      "type": "event"
    },
    {
      "anonymous": false,
      "inputs": [
        {
          "indexed": true,
          "internalType": "address",
          "name": "owner",
          "type": "address"
        },
        {
          "indexed": true,
          "internalType": "address",
          "name": "operator",
          "type": "address"
        },
        {
          "indexed": false,
          "internalType": "bool",
          "name": "approved",
          "type": "bool"
        }
      ],
      "name": "ApprovalForAll",
      "type": "event"
    },
    {
      "anonymous": false,
      "inputs": [
        {
          "indexed": false,
          "internalType": "uint256",
          "name": "_fromTokenId",
          "type": "uint256"
        },
        {
          "indexed": false,
          "internalType": "uint256",
          "name": "_toTokenId",
          "type": "uint256"
        }
      ],
      "name": "BatchMetadataUpdate",
      "type": "event"
    },
    {
      "anonymous": false,
      "inputs": [
        {
          "indexed": false,
          "internalType": "uint256",
          "name": "_tokenId",
          "type": "uint256"
        }
      ],
      "name": "MetadataUpdate",
      "type": "event"
    },
    {
      "anonymous": false,
      "inputs": [
        {
          "indexed": true,
          "internalType": "address",
          "name": "previousOwner",
          "type": "address"
        },
        {
          "indexed": true,
          "internalType": "address",
          "name": "newOwner",
          "type": "address"
        }
      ],
      "name": "OwnershipTransferred",
      "type": "event"
    },
    {
      "anonymous": false,
      "inputs": [
        {
          "indexed": true,
          "internalType": "address",
          "name": "from",
          "type": "address"
        },
        {
          "indexed": true,
          "internalType": "address",
          "name": "to",
          "type": "address"
        },
        {
          "indexed": true,
          "internalType": "uint256",
          "name": "tokenId",
          "type": "uint256"
        }
      ],
      "name": "Transfer",
      "type": "event"
    },
    {
      "inputs": [
        {
          "internalType": "address",
          "name": "to",
          "type": "address"
        },
        {
          "internalType": "uint256",
          "name": "tokenId",
          "type": "uint256"
        }
      ],
      "name": "approve",
      "outputs": [],
      "stateMutability": "nonpayable",
      "type": "function"
    },
    {
      "inputs": [
        {
          "internalType": "address",
          "name": "owner",
          "type": "address"
        }
      ],
      "name": "balanceOf",
      "outputs": [
        {
          "internalType": "uint256",
          "name": "",
          "type": "uint256"
        }
      ],
      "stateMutability": "view",
      "type": "function"
    },
    {
      "inputs": [
        {
          "internalType": "uint256",
          "name": "tokenId",
          "type": "uint256"
        }
      ],
      "name": "burnToken",
      "outputs": [],
      "stateMutability": "nonpayable",
      "type": "function"
    },
    {
      "inputs": [
        {
          "internalType": "uint256",
          "name": "tokenId",
          "type": "uint256"
        }
      ],
      "name": "getApproved",
      "outputs": [
        {
          "internalType": "address",
          "name": "",
          "type": "address"
        }
      ],
      "stateMutability": "view",
      "type": "function"
    },
    {
      "inputs": [
        {
          "internalType": "address",
          "name": "owner",
          "type": "address"
        },
        {
          "internalType": "address",
          "name": "operator",
          "type": "address"
        }
      ],
      "name": "isApprovedForAll",
      "outputs": [
        {
          "internalType": "bool",
          "name": "",
          "type": "bool"
        }
      ],
      "stateMutability": "view",
      "type": "function"
    },
    {
      "inputs": [
        {
          "internalType": "address",
          "name": "to",
          "type": "address"
        },
        {
          "internalType": "string",
          "name": "uri",
          "type": "string"
        }
      ],
      "name": "mintNFT",
      "outputs": [
        {
          "internalType": "uint256",
          "name": "",
          "type": "uint256"
        }
      ],
      "stateMutability": "nonpayable",
      "type": "function"
    },
    {
      "inputs": [],
      "name": "name",
      "outputs": [
        {
          "internalType": "string",
          "name": "",
          "type": "string"
        }
      ],
      "stateMutability": "view",
      "type": "function"
    },
    {
      "inputs": [],
      "name": "owner",
      "outputs": [
        {
          "internalType": "address",
          "name": "",
          "type": "address"
        }
      ],
      "stateMutability": "view",
      "type": "function"
    },
    {
      "inputs": [
        {
          "internalType": "uint256",
          "name": "tokenId",
          "type": "uint256"
        }
      ],
      "name": "ownerOf",
      "outputs": [
        {
          "internalType": "address",
          "name": "",
          "type": "address"
        }
      ],
      "stateMutability": "view",
      "type": "function"
    },
    {
      "inputs": [],
      "name": "renounceOwnership",
      "outputs": [],
      "stateMutability": "nonpayable",
      "type": "function"
    },
    {
      "inputs": [
        {
          "internalType": "address",
          "name": "from",
          "type": "address"
        },
        {
          "internalType": "address",
          "name": "to",
          "type": "address"
        },
        {
          "internalType": "uint256",
          "name": "tokenId",
          "type": "uint256"
        }
      ],
      "name": "safeTransferFrom",
      "outputs": [],
      "stateMutability": "nonpayable",
      "type": "function"
    },
    {
      "inputs": [
        {
          "internalType": "address",
          "name": "from",
          "type": "address"
        },
        {
          "internalType": "address",
          "name": "to",
          "type": "address"
        },
        {
          "internalType": "uint256",
          "name": "tokenId",
          "type": "uint256"
        },
        {
          "internalType": "bytes",
          "name": "data",
          "type": "bytes"
        }
      ],
      "name": "safeTransferFrom",
      "outputs": [],
      "stateMutability": "nonpayable",
      "type": "function"
    },
    {
      "inputs": [
        {
          "internalType": "address",
          "name": "operator",
          "type": "address"
        },
        {
          "internalType": "bool",
          "name": "approved",
          "type": "bool"
        }
      ],
      "name": "setApprovalForAll",
      "outputs": [],
      "stateMutability": "nonpayable",
      "type": "function"
    },
    {
      "inputs": [
        {
          "internalType": "bytes4",
          "name": "interfaceId",
          "type": "bytes4"
        }
      ],
      "name": "supportsInterface",
      "outputs": [
        {
          "internalType": "bool",
          "name": "",
          "type": "bool"
        }
      ],
      "stateMutability": "view",
      "type": "function"
    },
    {
      "inputs": [],
      "name": "symbol",
      "outputs": [
        {
          "internalType": "string",
          "name": "",
          "type": "string"
        }
      ],
      "stateMutability": "view",
      "type": "function"
    },
    {
      "inputs": [],
      "name": "tokenCounter",
      "outputs": [
        {
          "internalType": "uint256",
          "name": "",
          "type": "uint256"
        }
      ],
      "stateMutability": "view",
      "type": "function"
    },
    {
      "inputs": [
        {
          "internalType": "uint256",
          "name": "tokenId",
          "type": "uint256"
        }
      ],
      "name": "tokenURI",
      "outputs": [
        {
          "internalType": "string",
          "name": "",
          "type": "string"
        }
      ],
      "stateMutability": "view",
      "type": "function"
    },
    {
      "inputs": [
        {
          "internalType": "address",
          "name": "from",
          "type": "address"
        },
        {
          "internalType": "address",
          "name": "to",
          "type": "address"
        },
        {
          "internalType": "uint256",
          "name": "tokenId",
          "type": "uint256"
        }
      ],
      "name": "transferFrom",
      "outputs": [],
      "stateMutability": "nonpayable",
      "type": "function"
    },
    {
      "inputs": [
        {
          "internalType": "address",
          "name": "newOwner",
          "type": "address"
        }
      ],
      "name": "transferOwnership",
      "outputs": [],
      "stateMutability": "nonpayable",
      "type": "function"
    }
  ],
  "bytecode": "0x608060405234801561001057600080fd5b50336040518060400160405280600a81526020017f4d7946697273744e4654000000000000000000000000000000000000000000008152506040518060400160405280600381526020017f4d464e0000000000000000000000000000000000000000000000000000000000815250816000908161008d9190610445565b50806001908161009d9190610445565b505050600073ffffffffffffffffffffffffffffffffffffffff168173ffffffffffffffffffffffffffffffffffffffff16036101125760006040517f1e4fbdf70000000000000000000000000000000000000000000000000000000081526004016101099190610558565b60405180910390fd5b6101218161012f60201b60201c565b506000600881905550610573565b6000600760009054906101000a900473ffffffffffffffffffffffffffffffffffffffff16905081600760006101000a81548173ffffffffffffffffffffffffffffffffffffffff021916908373ffffffffffffffffffffffffffffffffffffffff1602179055508173ffffffffffffffffffffffffffffffffffffffff168173ffffffffffffffffffffffffffffffffffffffff167f8be0079c531659141344cd1fd0a4f28419497f9722a3daafe3b4186f6b6457e060405160405180910390a35050565b600081519050919050565b7f4e487b7100000000000000000000000000000000000000000000000000000000600052604160045260246000fd5b7f4e487b7100000000000000000000000000000000000000000000000000000000600052602260045260246000fd5b6000600282049050600182168061027657607f821691505b6020821081036102895761028861022f565b5b50919050565b60008190508160005260206000209050919050565b60006020601f8301049050919050565b600082821b905092915050565b6000600883026102f17fffffffffffffffffffffffffffffffffffffffffffffffffffffffffffffffff826102b4565b6102fb86836102b4565b95508019841693508086168417925050509392505050565b6000819050919050565b6000819050919050565b600061034261033d61033884610313565b61031d565b610313565b9050919050565b6000819050919050565b61035c83610327565b61037061036882610349565b8484546102c1565b825550505050565b600090565b610385610378565b610390818484610353565b505050565b5b818110156103b4576103a960008261037d565b600181019050610396565b5050565b601f8211156103f9576103ca8161028f565b6103d3846102a4565b810160208510156103e2578190505b6103f66103ee856102a4565b830182610395565b50505b505050565b600082821c905092915050565b600061041c600019846008026103fe565b1980831691505092915050565b6000610435838361040b565b9150826002028217905092915050565b61044e826101f5565b67ffffffffffffffff81111561046757610466610200565b5b610471825461025e565b61047c8282856103b8565b600060209050601f8311600181146104af576000841561049d578287015190505b6104a78582610429565b86555061050f565b601f1984166104bd8661028f565b60005b828110156104e5578489015182556001820191506020850194506020810190506104c0565b8683101561050257848901516104fe601f89168261040b565b8355505b6001600288020188555050505b505050505050565b600073ffffffffffffffffffffffffffffffffffffffff82169050919050565b600061054282610517565b9050919050565b61055281610537565b82525050565b600060208201905061056d6000830184610549565b92915050565b61285f806105826000396000f3fe608060405234801561001057600080fd5b50600436106101215760003560e01c80637b47ec1a116100ad578063c87b56dd11610071578063c87b56dd146102f2578063d082e38114610322578063e985e9c514610340578063eacabe1414610370578063f2fde38b146103a057610121565b80637b47ec1a146102625780638da5cb5b1461027e57806395d89b411461029c578063a22cb465146102ba578063b88d4fde146102d657610121565b806323b872dd116100f457806323b872dd146101c057806342842e0e146101dc5780636352211e146101f857806370a0823114610228578063715018a61461025857610121565b806301ffc9a71461012657806306fdde0314610156578063081812fc14610174578063095ea7b3146101a4575b600080fd5b610140600480360381019061013b9190611c4b565b6103bc565b60405161014d9190611c93565b60405180910390f35b61015e61041d565b60405161016b9190611d3e565b60405180910390f35b61018e60048036038101906101899190611d96565b6104af565b60405161019b9190611e04565b60405180910390f35b6101be60048036038101906101b99190611e4b565b6104cb565b005b6101da60048036038101906101d59190611e8b565b6104e1565b005b6101f660048036038101906101f19190611e8b565b6105e3565b005b610212600480360381019061020d9190611d96565b610603565b60405161021f9190611e04565b60405180910390f35b610242600480360381019061023d9190611ede565b610615565b60405161024f9190611f1a565b60405180910390f35b6102606106cf565b005b61027c60048036038101906102779190611d96565b6106e3565b005b610286610765565b6040516102939190611e04565b60405180910390f35b6102a461078f565b6040516102b19190611d3e565b60405180910390f35b6102d460048036038101906102cf9190611f61565b610821565b005b6102f060048036038101906102eb91906120d6565b610837565b005b61030c60048036038101906103079190611d96565b61085c565b6040516103199190611d3e565b60405180910390f35b61032a61086e565b6040516103379190611f1a565b60405180910390f35b61035a60048036038101906103559190612159565b610874565b6040516103679190611c93565b60405180910390f35b61038a6004803603810190610385919061223a565b610908565b6040516103979190611f1a565b60405180910390f35b6103ba60048036038101906103b59190611ede565b61094f565b005b6000634906490660e01b7bffffffffffffffffffffffffffffffffffffffffffffffffffffffff1916827bffffffffffffffffffffffffffffffffffffffffffffffffffffffff191614806104165750610415826109d5565b5b9050919050565b60606000805461042c906122c5565b80601f0160208091040260200160405190810160405280929190818152602001828054610458906122c5565b80156104a55780601f1061047a576101008083540402835291602001916104a5565b820191906000526020600020905b81548152906001019060200180831161048857829003601f168201915b5050505050905090565b60006104ba82610ab7565b506104c482610b3f565b9050919050565b6104dd82826104d8610b7c565b610b84565b5050565b600073ffffffffffffffffffffffffffffffffffffffff168273ffffffffffffffffffffffffffffffffffffffff16036105535760006040517f64a0ae9200000000000000000000000000000000000000000000000000000000815260040161054a9190611e04565b60405180910390fd5b60006105678383610562610b7c565b610b96565b90508373ffffffffffffffffffffffffffffffffffffffff168173ffffffffffffffffffffffffffffffffffffffff16146105dd578382826040517f64283d7b0000000000000000000000000000000000000000000000000000000081526004016105d4939291906122f6565b60405180910390fd5b50505050565b6105fe83838360405180602001604052806000815250610837565b505050565b600061060e82610ab7565b9050919050565b60008073ffffffffffffffffffffffffffffffffffffffff168273ffffffffffffffffffffffffffffffffffffffff16036106885760006040517f89c62b6400000000000000000000000000000000000000000000000000000000815260040161067f9190611e04565b60405180910390fd5b600360008373ffffffffffffffffffffffffffffffffffffffff1673ffffffffffffffffffffffffffffffffffffffff168152602001908152602001600020549050919050565b6106d7610db0565b6106e16000610e37565b565b6106ec81610603565b73ffffffffffffffffffffffffffffffffffffffff163373ffffffffffffffffffffffffffffffffffffffff1614610759576040517f08c379a000000000000000000000000000000000000000000000000000000000815260040161075090612379565b60405180910390fd5b61076281610efd565b50565b6000600760009054906101000a900473ffffffffffffffffffffffffffffffffffffffff16905090565b60606001805461079e906122c5565b80601f01602080910402602001604051908101604052809291908181526020018280546107ca906122c5565b80156108175780601f106107ec57610100808354040283529160200191610817565b820191906000526020600020905b8154815290600101906020018083116107fa57829003601f168201915b5050505050905090565b61083361082c610b7c565b8383610f83565b5050565b6108428484846104e1565b61085661084d610b7c565b858585856110f2565b50505050565b6060610867826112a3565b9050919050565b60085481565b6000600560008473ffffffffffffffffffffffffffffffffffffffff1673ffffffffffffffffffffffffffffffffffffffff16815260200190815260200160002060008373ffffffffffffffffffffffffffffffffffffffff1673ffffffffffffffffffffffffffffffffffffffff16815260200190815260200160002060009054906101000a900460ff16905092915050565b6000610912610db0565b6000600854905061092384826113b6565b61092d81846113d4565b60086000815480929190610940906123c8565b91905055508091505092915050565b610957610db0565b600073ffffffffffffffffffffffffffffffffffffffff168173ffffffffffffffffffffffffffffffffffffffff16036109c95760006040517f1e4fbdf70000000000000000000000000000000000000000000000000000000081526004016109c09190611e04565b60405180910390fd5b6109d281610e37565b50565b60007f80ac58cd000000000000000000000000000000000000000000000000000000007bffffffffffffffffffffffffffffffffffffffffffffffffffffffff1916827bffffffffffffffffffffffffffffffffffffffffffffffffffffffff19161480610aa057507f5b5e139f000000000000000000000000000000000000000000000000000000007bffffffffffffffffffffffffffffffffffffffffffffffffffffffff1916827bffffffffffffffffffffffffffffffffffffffffffffffffffffffff1916145b80610ab05750610aaf82611430565b5b9050919050565b600080610ac38361149a565b9050600073ffffffffffffffffffffffffffffffffffffffff168173ffffffffffffffffffffffffffffffffffffffff1603610b3657826040517f7e273289000000000000000000000000000000000000000000000000000000008152600401610b2d9190611f1a565b60405180910390fd5b80915050919050565b60006004600083815260200190815260200160002060009054906101000a900473ffffffffffffffffffffffffffffffffffffffff169050919050565b600033905090565b610b9183838360016114d7565b505050565b600080610ba28461149a565b9050600073ffffffffffffffffffffffffffffffffffffffff168373ffffffffffffffffffffffffffffffffffffffff1614610be457610be381848661169c565b5b600073ffffffffffffffffffffffffffffffffffffffff168173ffffffffffffffffffffffffffffffffffffffff1614610c7557610c266000856000806114d7565b6001600360008373ffffffffffffffffffffffffffffffffffffffff1673ffffffffffffffffffffffffffffffffffffffff168152602001908152602001600020600082825403925050819055505b600073ffffffffffffffffffffffffffffffffffffffff168573ffffffffffffffffffffffffffffffffffffffff1614610cf8576001600360008773ffffffffffffffffffffffffffffffffffffffff1673ffffffffffffffffffffffffffffffffffffffff168152602001908152602001600020600082825401925050819055505b846002600086815260200190815260200160002060006101000a81548173ffffffffffffffffffffffffffffffffffffffff021916908373ffffffffffffffffffffffffffffffffffffffff160217905550838573ffffffffffffffffffffffffffffffffffffffff168273ffffffffffffffffffffffffffffffffffffffff167fddf252ad1be2c89b69c2b068fc378daa952ba7f163c4a11628f55a4df523b3ef60405160405180910390a4809150509392505050565b610db8610b7c565b73ffffffffffffffffffffffffffffffffffffffff16610dd6610765565b73ffffffffffffffffffffffffffffffffffffffff1614610e3557610df9610b7c565b6040517f118cdaa7000000000000000000000000000000000000000000000000000000008152600401610e2c9190611e04565b60405180910390fd5b565b6000600760009054906101000a900473ffffffffffffffffffffffffffffffffffffffff16905081600760006101000a81548173ffffffffffffffffffffffffffffffffffffffff021916908373ffffffffffffffffffffffffffffffffffffffff1602179055508173ffffffffffffffffffffffffffffffffffffffff168173ffffffffffffffffffffffffffffffffffffffff167f8be0079c531659141344cd1fd0a4f28419497f9722a3daafe3b4186f6b6457e060405160405180910390a35050565b6000610f0c6000836000610b96565b9050600073ffffffffffffffffffffffffffffffffffffffff168173ffffffffffffffffffffffffffffffffffffffff1603610f7f57816040517f7e273289000000000000000000000000000000000000000000000000000000008152600401610f769190611f1a565b60405180910390fd5b5050565b600073ffffffffffffffffffffffffffffffffffffffff168273ffffffffffffffffffffffffffffffffffffffff1603610ff457816040517f5b08ba18000000000000000000000000000000000000000000000000000000008152600401610feb9190611e04565b60405180910390fd5b80600560008573ffffffffffffffffffffffffffffffffffffffff1673ffffffffffffffffffffffffffffffffffffffff16815260200190815260200160002060008473ffffffffffffffffffffffffffffffffffffffff1673ffffffffffffffffffffffffffffffffffffffff16815260200190815260200160002060006101000a81548160ff0219169083151502179055508173ffffffffffffffffffffffffffffffffffffffff168373ffffffffffffffffffffffffffffffffffffffff167f17307eab39ab6107e8899845ad3d59bd9653f200f220920489ca2b5937696c31836040516110e59190611c93565b60405180910390a3505050565b60008373ffffffffffffffffffffffffffffffffffffffff163b111561129c578273ffffffffffffffffffffffffffffffffffffffff1663150b7a02868685856040518563ffffffff1660e01b81526004016111519493929190612465565b6020604051808303816000875af192505050801561118d57506040513d601f19601f8201168201806040525081019061118a91906124c6565b60015b611211573d80600081146111bd576040519150601f19603f3d011682016040523d82523d6000602084013e6111c2565b606091505b50600081510361120957836040517f64a0ae920000000000000000000000000000000000000000000000000000000081526004016112009190611e04565b60405180910390fd5b805181602001fd5b63150b7a0260e01b7bffffffffffffffffffffffffffffffffffffffffffffffffffffffff1916817bffffffffffffffffffffffffffffffffffffffffffffffffffffffff19161461129a57836040517f64a0ae920000000000000000000000000000000000000000000000000000000081526004016112919190611e04565b60405180910390fd5b505b5050505050565b60606112ae82610ab7565b5060006006600084815260200190815260200160002080546112cf906122c5565b80601f01602080910402602001604051908101604052809291908181526020018280546112fb906122c5565b80156113485780601f1061131d57610100808354040283529160200191611348565b820191906000526020600020905b81548152906001019060200180831161132b57829003601f168201915b505050505090506000611359611760565b9050600081510361136e5781925050506113b1565b6000825111156113a357808260405160200161138b92919061252f565b604051602081830303815290604052925050506113b1565b6113ac84611777565b925050505b919050565b6113d08282604051806020016040528060008152506117e0565b5050565b806006600084815260200190815260200160002090816113f491906126ff565b507ff8e1a15aba9398e019f0b49df1a4fde98ee17ae345cb5f6b5e2c27f5033e8ce7826040516114249190611f1a565b60405180910390a15050565b60007f01ffc9a7000000000000000000000000000000000000000000000000000000007bffffffffffffffffffffffffffffffffffffffffffffffffffffffff1916827bffffffffffffffffffffffffffffffffffffffffffffffffffffffff1916149050919050565b60006002600083815260200190815260200160002060009054906101000a900473ffffffffffffffffffffffffffffffffffffffff169050919050565b80806115105750600073ffffffffffffffffffffffffffffffffffffffff168273ffffffffffffffffffffffffffffffffffffffff1614155b1561164457600061152084610ab7565b9050600073ffffffffffffffffffffffffffffffffffffffff168373ffffffffffffffffffffffffffffffffffffffff161415801561158b57508273ffffffffffffffffffffffffffffffffffffffff168173ffffffffffffffffffffffffffffffffffffffff1614155b801561159e575061159c8184610874565b155b156115e057826040517fa9fbf51f0000000000000000000000000000000000000000000000000000000081526004016115d79190611e04565b60405180910390fd5b811561164257838573ffffffffffffffffffffffffffffffffffffffff168273ffffffffffffffffffffffffffffffffffffffff167f8c5be1e5ebec7d5bd14f71427d1e84f3dd0314c0f7b2291e5b200ac8c7c3b92560405160405180910390a45b505b836004600085815260200190815260200160002060006101000a81548173ffffffffffffffffffffffffffffffffffffffff021916908373ffffffffffffffffffffffffffffffffffffffff16021790555050505050565b6116a7838383611804565b61175b57600073ffffffffffffffffffffffffffffffffffffffff168373ffffffffffffffffffffffffffffffffffffffff160361171c57806040517f7e2732890000000000000000000000000000000000000000000000000000000081526004016117139190611f1a565b60405180910390fd5b81816040517f177e802f0000000000000000000000000000000000000000000000000000000081526004016117529291906127d1565b60405180910390fd5b505050565b606060405180602001604052806000815250905090565b606061178282610ab7565b50600061178d611760565b905060008151116117ad57604051806020016040528060008152506117d8565b806117b7846118c5565b6040516020016117c892919061252f565b6040516020818303038152906040525b915050919050565b6117ea8383611993565b6117ff6117f5610b7c565b60008585856110f2565b505050565b60008073ffffffffffffffffffffffffffffffffffffffff168373ffffffffffffffffffffffffffffffffffffffff16141580156118bc57508273ffffffffffffffffffffffffffffffffffffffff168473ffffffffffffffffffffffffffffffffffffffff16148061187d575061187c8484610874565b5b806118bb57508273ffffffffffffffffffffffffffffffffffffffff166118a383610b3f565b73ffffffffffffffffffffffffffffffffffffffff16145b5b90509392505050565b6060600060016118d484611a8c565b01905060008167ffffffffffffffff8111156118f3576118f2611fab565b5b6040519080825280601f01601f1916602001820160405280156119255781602001600182028036833780820191505090505b509050600082602001820190505b600115611988578080600190039150507f3031323334353637383961626364656600000000000000000000000000000000600a86061a8153600a858161197c5761197b6127fa565b5b04945060008503611933575b819350505050919050565b600073ffffffffffffffffffffffffffffffffffffffff168273ffffffffffffffffffffffffffffffffffffffff1603611a055760006040517f64a0ae920000000000000000000000000000000000000000000000000000000081526004016119fc9190611e04565b60405180910390fd5b6000611a1383836000610b96565b9050600073ffffffffffffffffffffffffffffffffffffffff168173ffffffffffffffffffffffffffffffffffffffff1614611a875760006040517f73c6ac6e000000000000000000000000000000000000000000000000000000008152600401611a7e9190611e04565b60405180910390fd5b505050565b600080600090507a184f03e93ff9f4daa797ed6e38ed64bf6a1f0100000000000000008310611aea577a184f03e93ff9f4daa797ed6e38ed64bf6a1f0100000000000000008381611ae057611adf6127fa565b5b0492506040810190505b6d04ee2d6d415b85acef81000000008310611b27576d04ee2d6d415b85acef81000000008381611b1d57611b1c6127fa565b5b0492506020810190505b662386f26fc100008310611b5657662386f26fc100008381611b4c57611b4b6127fa565b5b0492506010810190505b6305f5e1008310611b7f576305f5e1008381611b7557611b746127fa565b5b0492506008810190505b6127108310611ba4576127108381611b9a57611b996127fa565b5b0492506004810190505b60648310611bc75760648381611bbd57611bbc6127fa565b5b0492506002810190505b600a8310611bd6576001810190505b80915050919050565b6000604051905090565b600080fd5b600080fd5b60007fffffffff0000000000000000000000000000000000000000000000000000000082169050919050565b611c2881611bf3565b8114611c3357600080fd5b50565b600081359050611c4581611c1f565b92915050565b600060208284031215611c6157611c60611be9565b5b6000611c6f84828501611c36565b91505092915050565b60008115159050919050565b611c8d81611c78565b82525050565b6000602082019050611ca86000830184611c84565b92915050565b600081519050919050565b600082825260208201905092915050565b60005b83811015611ce8578082015181840152602081019050611ccd565b60008484015250505050565b6000601f19601f8301169050919050565b6000611d1082611cae565b611d1a8185611cb9565b9350611d2a818560208601611cca565b611d3381611cf4565b840191505092915050565b60006020820190508181036000830152611d588184611d05565b905092915050565b6000819050919050565b611d7381611d60565b8114611d7e57600080fd5b50565b600081359050611d9081611d6a565b92915050565b600060208284031215611dac57611dab611be9565b5b6000611dba84828501611d81565b91505092915050565b600073ffffffffffffffffffffffffffffffffffffffff82169050919050565b6000611dee82611dc3565b9050919050565b611dfe81611de3565b82525050565b6000602082019050611e196000830184611df5565b92915050565b611e2881611de3565b8114611e3357600080fd5b50565b600081359050611e4581611e1f565b92915050565b60008060408385031215611e6257611e61611be9565b5b6000611e7085828601611e36565b9250506020611e8185828601611d81565b9150509250929050565b600080600060608486031215611ea457611ea3611be9565b5b6000611eb286828701611e36565b9350506020611ec386828701611e36565b9250506040611ed486828701611d81565b9150509250925092565b600060208284031215611ef457611ef3611be9565b5b6000611f0284828501611e36565b91505092915050565b611f1481611d60565b82525050565b6000602082019050611f2f6000830184611f0b565b92915050565b611f3e81611c78565b8114611f4957600080fd5b50565b600081359050611f5b81611f35565b92915050565b60008060408385031215611f7857611f77611be9565b5b6000611f8685828601611e36565b9250506020611f9785828601611f4c565b9150509250929050565b600080fd5b600080fd5b7f4e487b7100000000000000000000000000000000000000000000000000000000600052604160045260246000fd5b611fe382611cf4565b810181811067ffffffffffffffff8211171561200257612001611fab565b5b80604052505050565b6000612015611bdf565b90506120218282611fda565b919050565b600067ffffffffffffffff82111561204157612040611fab565b5b61204a82611cf4565b9050602081019050919050565b82818337600083830152505050565b600061207961207484612026565b61200b565b90508281526020810184848401111561209557612094611fa6565b5b6120a0848285612057565b509392505050565b600082601f8301126120bd576120bc611fa1565b5b81356120cd848260208601612066565b91505092915050565b600080600080608085870312156120f0576120ef611be9565b5b60006120fe87828801611e36565b945050602061210f87828801611e36565b935050604061212087828801611d81565b925050606085013567ffffffffffffffff81111561214157612140611bee565b5b61214d878288016120a8565b91505092959194509250565b600080604083850312156121705761216f611be9565b5b600061217e85828601611e36565b925050602061218f85828601611e36565b9150509250929050565b600067ffffffffffffffff8211156121b4576121b3611fab565b5b6121bd82611cf4565b9050602081019050919050565b60006121dd6121d884612199565b61200b565b9050828152602081018484840111156121f9576121f8611fa6565b5b612204848285612057565b509392505050565b600082601f83011261222157612220611fa1565b5b81356122318482602086016121ca565b91505092915050565b6000806040838503121561225157612250611be9565b5b600061225f85828601611e36565b925050602083013567ffffffffffffffff8111156122805761227f611bee565b5b61228c8582860161220c565b9150509250929050565b7f4e487b7100000000000000000000000000000000000000000000000000000000600052602260045260246000fd5b600060028204905060018216806122dd57607f821691505b6020821081036122f0576122ef612296565b5b50919050565b600060608201905061230b6000830186611df5565b6123186020830185611f0b565b6123256040830184611df5565b949350505050565b7f596f7520617265206e6f7420746865206f776e65720000000000000000000000600082015250565b6000612363601583611cb9565b915061236e8261232d565b602082019050919050565b6000602082019050818103600083015261239281612356565b9050919050565b7f4e487b7100000000000000000000000000000000000000000000000000000000600052601160045260246000fd5b60006123d382611d60565b91507fffffffffffffffffffffffffffffffffffffffffffffffffffffffffffffffff820361240557612404612399565b5b600182019050919050565b600081519050919050565b600082825260208201905092915050565b600061243782612410565b612441818561241b565b9350612451818560208601611cca565b61245a81611cf4565b840191505092915050565b600060808201905061247a6000830187611df5565b6124876020830186611df5565b6124946040830185611f0b565b81810360608301526124a6818461242c565b905095945050505050565b6000815190506124c081611c1f565b92915050565b6000602082840312156124dc576124db611be9565b5b60006124ea848285016124b1565b91505092915050565b600081905092915050565b600061250982611cae565b61251381856124f3565b9350612523818560208601611cca565b80840191505092915050565b600061253b82856124fe565b915061254782846124fe565b91508190509392505050565b60008190508160005260206000209050919050565b60006020601f8301049050919050565b600082821b905092915050565b6000600883026125b57fffffffffffffffffffffffffffffffffffffffffffffffffffffffffffffffff82612578565b6125bf8683612578565b95508019841693508086168417925050509392505050565b6000819050919050565b60006125fc6125f76125f284611d60565b6125d7565b611d60565b9050919050565b6000819050919050565b612616836125e1565b61262a61262282612603565b848454612585565b825550505050565b600090565b61263f612632565b61264a81848461260d565b505050565b5b8181101561266e57612663600082612637565b600181019050612650565b5050565b601f8211156126b35761268481612553565b61268d84612568565b8101602085101561269c578190505b6126b06126a885612568565b83018261264f565b50505b505050565b600082821c905092915050565b60006126d6600019846008026126b8565b1980831691505092915050565b60006126ef83836126c5565b9150826002028217905092915050565b61270882611cae565b67ffffffffffffffff81111561272157612720611fab565b5b61272b82546122c5565b612736828285612672565b600060209050601f8311600181146127695760008415612757578287015190505b61276185826126e3565b8655506127c9565b601f19841661277786612553565b60005b8281101561279f5784890151825560018201915060208501945060208101905061277a565b868310156127bc57848901516127b8601f8916826126c5565b8355505b6001600288020188555050505b505050505050565b60006040820190506127e66000830185611df5565b6127f36020830184611f0b565b9392505050565b7f4e487b7100000000000000000000000000000000000000000000000000000000600052601260045260246000fdfea2646970667358221220f92e7ae750df1989bb65f4e1e6017934d33d2e71a226ffc2932124376b8bc0fe64736f6c634300081c0033",
  "linkReferences": {},
  "deployedLinkReferences": {}
}